{
  "_format": "hh-sol-artifact-1",
  "contractName": "TokenTimeLock",
  "sourceName": "contracts/12-TimeLock/TokenTimeLock.sol",
  "abi": [
    {
      "inputs": [
        {
          "internalType": "address",
          "name": "_stTHXtoken",
          "type": "address"
        },
        {
          "internalType": "address",
          "name": "_THXtoken",
          "type": "address"
        }
      ],
      "stateMutability": "nonpayable",
      "type": "constructor"
    },
    {
      "anonymous": false,
      "inputs": [
        {
          "indexed": false,
          "internalType": "address",
          "name": "_tokenAddress",
          "type": "address"
        },
        {
          "indexed": false,
          "internalType": "uint256",
          "name": "_allocating",
          "type": "uint256"
        }
      ],
      "name": "Allocated",
      "type": "event"
    },
    {
      "anonymous": false,
      "inputs": [
        {
          "indexed": true,
          "internalType": "address",
          "name": "user",
          "type": "address"
        },
        {
          "indexed": false,
          "internalType": "uint256",
          "name": "amount",
          "type": "uint256"
        }
      ],
      "name": "Staked",
      "type": "event"
    },
    {
      "anonymous": false,
      "inputs": [
        {
          "indexed": true,
          "internalType": "address",
          "name": "user",
          "type": "address"
        },
        {
          "indexed": false,
          "internalType": "uint256",
          "name": "amount",
          "type": "uint256"
        }
      ],
      "name": "Withdrawn",
      "type": "event"
    },
    {
      "inputs": [
        {
          "internalType": "uint256",
          "name": "",
          "type": "uint256"
        }
      ],
      "name": "addresses",
      "outputs": [
        {
          "internalType": "address",
          "name": "",
          "type": "address"
        }
      ],
      "stateMutability": "view",
      "type": "function"
    },
    {
      "inputs": [
        {
          "internalType": "address",
          "name": "_userAddress",
          "type": "address"
        },
        {
          "internalType": "address",
          "name": "_tokenAddress",
          "type": "address"
        },
        {
          "internalType": "uint256",
          "name": "allocating",
          "type": "uint256"
        }
      ],
      "name": "allocate",
      "outputs": [],
      "stateMutability": "nonpayable",
      "type": "function"
    },
    {
      "inputs": [
        {
          "internalType": "address",
          "name": "",
          "type": "address"
        },
        {
          "internalType": "address",
          "name": "",
          "type": "address"
        }
      ],
      "name": "allocations",
      "outputs": [
        {
          "internalType": "uint256",
          "name": "",
          "type": "uint256"
        }
      ],
      "stateMutability": "view",
      "type": "function"
    },
    {
      "inputs": [
        {
          "internalType": "uint256",
          "name": "amount",
          "type": "uint256"
        },
        {
          "internalType": "uint256",
          "name": "_increase",
          "type": "uint256"
        }
      ],
      "name": "deposit",
      "outputs": [],
      "stateMutability": "payable",
      "type": "function"
    },
    {
      "inputs": [],
      "name": "getAddress",
      "outputs": [
        {
          "internalType": "address[]",
          "name": "",
          "type": "address[]"
        }
      ],
      "stateMutability": "view",
      "type": "function"
    },
    {
      "inputs": [],
      "name": "getLocktime",
      "outputs": [
        {
          "internalType": "uint256",
          "name": "",
          "type": "uint256"
        }
      ],
      "stateMutability": "view",
      "type": "function"
    },
    {
      "inputs": [
        {
          "internalType": "address",
          "name": "",
          "type": "address"
        }
      ],
      "name": "lockTime",
      "outputs": [
        {
          "internalType": "uint256",
          "name": "",
          "type": "uint256"
        }
      ],
      "stateMutability": "view",
      "type": "function"
    },
    {
      "inputs": [
        {
          "internalType": "address",
          "name": "_user",
          "type": "address"
        },
        {
          "internalType": "address",
          "name": "_tokenAddress",
          "type": "address"
        },
        {
          "internalType": "uint256",
          "name": "rewards",
          "type": "uint256"
        }
      ],
      "name": "payout",
      "outputs": [],
      "stateMutability": "nonpayable",
      "type": "function"
    },
    {
      "inputs": [],
      "name": "withdraw",
      "outputs": [],
      "stateMutability": "nonpayable",
      "type": "function"
    }
  ],
  "bytecode": "0x608060405234801561001057600080fd5b50604051610c4d380380610c4d8339818101604052604081101561003357600080fd5b508051602090910151600580546001600160a01b039283166001600160a01b0319918216179091556006805492909316918116919091179091556003805490911633179055610bc6806100876000396000f3fe6080604052600436106100915760003560e01c8063a4beda6311610059578063a4beda63146101d5578063b78b481314610208578063e2bbb15814610243578063edf26d9b14610266578063fab1e747146102ac57610091565b806327e235e3146100965780632de02bfa146100db57806338cc4831146101205780633ccfd60b14610185578063853996e41461019a575b600080fd5b3480156100a257600080fd5b506100c9600480360360208110156100b957600080fd5b50356001600160a01b03166102c1565b60408051918252519081900360200190f35b3480156100e757600080fd5b5061011e600480360360608110156100fe57600080fd5b506001600160a01b038135811691602081013590911690604001356102d3565b005b34801561012c57600080fd5b5061013561036b565b60408051602080825283518183015283519192839290830191858101910280838360005b83811015610171578181015183820152602001610159565b505050509050019250505060405180910390f35b34801561019157600080fd5b5061011e6103cd565b3480156101a657600080fd5b506100c9600480360360408110156101bd57600080fd5b506001600160a01b03813581169160200135166105eb565b3480156101e157600080fd5b506100c9600480360360208110156101f857600080fd5b50356001600160a01b0316610608565b34801561021457600080fd5b5061011e6004803603604081101561022b57600080fd5b506001600160a01b038135811691602001351661061a565b61011e6004803603604081101561025957600080fd5b50803590602001356107c2565b34801561027257600080fd5b506102906004803603602081101561028957600080fd5b5035610a76565b604080516001600160a01b039092168252519081900360200190f35b3480156102b857600080fd5b506100c9610aa0565b60006020819052908152604090205481565b6001600160a01b038083166000908152600260209081526040808320938716835292905220546103039082610ab3565b6001600160a01b03808416600081815260026020908152604080832094891683529381529083902093909355815190815291820183905280517f472f36e28bb47edb7c69c9e2ac00a77c66b505df54e9c818ac57110b0629e8c39281900390910190a1505050565b606060048054806020026020016040519081016040528092919081815260200182805480156103c357602002820191906000526020600020905b81546001600160a01b031681526001909101906020018083116103a5575b5050505050905090565b3360009081526020819052604090205461042e576040805162461bcd60e51b815260206004820152601760248201527f5468657265206973206e6f2066756e6473206164646564000000000000000000604482015290519081900360640190fd5b336000818152602081905260408082208054908390556006548251632770a7eb60e21b8152600481019590955260248501829052915190936001600160a01b0390921692639dc29fac926044808201939182900301818387803b15801561049457600080fd5b505af11580156104a8573d6000803e3d6000fd5b50506005546040805163095ea7b360e01b81523060048201526024810186905290516001600160a01b03909216935063095ea7b392506044808201926020929091908290030181600087803b15801561050057600080fd5b505af1158015610514573d6000803e3d6000fd5b505050506040513d602081101561052a57600080fd5b5050600554604080516323b872dd60e01b81523060048201523360248201526044810184905290516001600160a01b03909216916323b872dd916064808201926020929091908290030181600087803b15801561058657600080fd5b505af115801561059a573d6000803e3d6000fd5b505050506040513d60208110156105b057600080fd5b505060408051828152905133917f7084f5476618d8e60b11ef0d7d3f06914655adb8793e28ff7f018d4c76d505d5919081900360200190a250565b600260209081526000928352604080842090915290825290205481565b60016020526000908152604090205481565b6003546001600160a01b03163314610666576040805162461bcd60e51b815260206004820152600a60248201526941444d494e5f4f4e4c5960b01b604482015290519081900360640190fd5b6001600160a01b038082166000818152600260209081526040808320948716835293815283822054845163095ea7b360e01b815230600482015260248101919091529351929363095ea7b39360448083019491928390030190829087803b1580156106d057600080fd5b505af11580156106e4573d6000803e3d6000fd5b505050506040513d60208110156106fa57600080fd5b50506001600160a01b0380821660008181526002602090815260408083209487168084529482528083205481516323b872dd60e01b8152306004820152602481019690965260448601525192936323b872dd9360648083019491928390030190829087803b15801561076b57600080fd5b505af115801561077f573d6000803e3d6000fd5b505050506040513d602081101561079557600080fd5b50506001600160a01b03908116600090815260026020908152604080832094909316825292909252812055565b600a821015610818576040805162461bcd60e51b815260206004820152601960248201527f43616e6e6f74207374616b65206c657373207468616e20313000000000000000604482015290519081900360640190fd5b336000908152602081905260409020546108329083610ab3565b33600081815260208190526040812092909255600480546001810182559083527f8a35acfbc15ff81a39ae7d344fd709f28e8600b4aa8c65c6b64bfe7fe36bd19b0180546001600160a01b03191690911790556108928262093a80610b16565b905061089e4282610ab3565b3360008181526001602090815260408083209490945560055484516323b872dd60e01b815260048101949094523060248501526044840188905293516001600160a01b03909416936323b872dd93606480820194918390030190829087803b15801561090957600080fd5b505af115801561091d573d6000803e3d6000fd5b505050506040513d602081101561093357600080fd5b50506006546040805163095ea7b360e01b81523060048201526024810186905290516001600160a01b039092169163095ea7b3916044808201926020929091908290030181600087803b15801561098957600080fd5b505af115801561099d573d6000803e3d6000fd5b505050506040513d60208110156109b357600080fd5b5050600654604080516323b872dd60e01b81523060048201523360248201526044810186905290516001600160a01b03909216916323b872dd916064808201926020929091908290030181600087803b158015610a0f57600080fd5b505af1158015610a23573d6000803e3d6000fd5b505050506040513d6020811015610a3957600080fd5b505060408051848152905133917f9e71bc8eea02a63969f509818f2dafb9254532904319f9dbda79b67bd34a5f3d919081900360200190a2505050565b60048181548110610a8657600080fd5b6000918252602090912001546001600160a01b0316905081565b3360009081526020819052604090205490565b600082820183811015610b0d576040805162461bcd60e51b815260206004820152601b60248201527f536166654d6174683a206164646974696f6e206f766572666c6f770000000000604482015290519081900360640190fd5b90505b92915050565b600082610b2557506000610b10565b82820282848281610b3257fe5b0414610b0d5760405162461bcd60e51b8152600401808060200182810382526021815260200180610b706021913960400191505060405180910390fdfe536166654d6174683a206d756c7469706c69636174696f6e206f766572666c6f77a2646970667358221220690a46d0ee394aa3add2a08a4586c5bf3b251f1da007ef58e102a0aaabae9ee564736f6c63430007040033",
  "linkReferences": {},
  "deployedLinkReferences": {}
}