{
    "_format": "hh-sol-artifact-1",
    "contractName": "UnlimitedSupplyToken",
    "sourceName": "contracts/util/ERC20/UnlimitedSupplyToken.sol",
    "abi": [
        {
            "inputs": [
                {
                    "internalType": "string",
                    "name": "_name",
                    "type": "string"
                },
                {
                    "internalType": "string",
                    "name": "_symbol",
                    "type": "string"
                },
                {
                    "internalType": "address[]",
                    "name": "_minters",
                    "type": "address[]"
                },
                {
                    "internalType": "address",
                    "name": "_admin",
                    "type": "address"
                }
            ],
            "stateMutability": "nonpayable",
            "type": "constructor"
        },
        {
            "anonymous": false,
            "inputs": [
                {
                    "indexed": true,
                    "internalType": "address",
                    "name": "owner",
                    "type": "address"
                },
                {
                    "indexed": true,
                    "internalType": "address",
                    "name": "spender",
                    "type": "address"
                },
                {
                    "indexed": false,
                    "internalType": "uint256",
                    "name": "value",
                    "type": "uint256"
                }
            ],
            "name": "Approval",
            "type": "event"
        },
        {
            "anonymous": false,
            "inputs": [
                {
                    "indexed": true,
                    "internalType": "address",
                    "name": "from",
                    "type": "address"
                },
                {
                    "indexed": true,
                    "internalType": "address",
                    "name": "to",
                    "type": "address"
                },
                {
                    "indexed": false,
                    "internalType": "uint256",
                    "name": "value",
                    "type": "uint256"
                }
            ],
            "name": "Transfer",
            "type": "event"
        },
        {
            "inputs": [
                {
                    "internalType": "address",
                    "name": "_minter",
                    "type": "address"
                }
            ],
            "name": "addMinter",
            "outputs": [],
            "stateMutability": "nonpayable",
            "type": "function"
        },
        {
            "inputs": [],
            "name": "admin",
            "outputs": [
                {
                    "internalType": "address",
                    "name": "",
                    "type": "address"
                }
            ],
            "stateMutability": "view",
            "type": "function"
        },
        {
            "inputs": [
                {
                    "internalType": "address",
                    "name": "owner",
                    "type": "address"
                },
                {
                    "internalType": "address",
                    "name": "spender",
                    "type": "address"
                }
            ],
            "name": "allowance",
            "outputs": [
                {
                    "internalType": "uint256",
                    "name": "",
                    "type": "uint256"
                }
            ],
            "stateMutability": "view",
            "type": "function"
        },
        {
            "inputs": [
                {
                    "internalType": "address",
                    "name": "spender",
                    "type": "address"
                },
                {
                    "internalType": "uint256",
                    "name": "amount",
                    "type": "uint256"
                }
            ],
            "name": "approve",
            "outputs": [
                {
                    "internalType": "bool",
                    "name": "",
                    "type": "bool"
                }
            ],
            "stateMutability": "nonpayable",
            "type": "function"
        },
        {
            "inputs": [
                {
                    "internalType": "address",
                    "name": "account",
                    "type": "address"
                }
            ],
            "name": "balanceOf",
            "outputs": [
                {
                    "internalType": "uint256",
                    "name": "",
                    "type": "uint256"
                }
            ],
            "stateMutability": "view",
            "type": "function"
        },
        {
            "inputs": [
                {
                    "internalType": "address",
                    "name": "user",
                    "type": "address"
                },
                {
                    "internalType": "uint256",
                    "name": "amount",
                    "type": "uint256"
                }
            ],
            "name": "burn",
            "outputs": [],
            "stateMutability": "payable",
            "type": "function"
        },
        {
            "inputs": [],
            "name": "decimals",
            "outputs": [
                {
                    "internalType": "uint8",
                    "name": "",
                    "type": "uint8"
                }
            ],
            "stateMutability": "view",
            "type": "function"
        },
        {
            "inputs": [
                {
                    "internalType": "address",
                    "name": "spender",
                    "type": "address"
                },
                {
                    "internalType": "uint256",
                    "name": "subtractedValue",
                    "type": "uint256"
                }
            ],
            "name": "decreaseAllowance",
            "outputs": [
                {
                    "internalType": "bool",
                    "name": "",
                    "type": "bool"
                }
            ],
            "stateMutability": "nonpayable",
            "type": "function"
        },
        {
            "inputs": [
                {
                    "internalType": "address",
                    "name": "spender",
                    "type": "address"
                },
                {
                    "internalType": "uint256",
                    "name": "addedValue",
                    "type": "uint256"
                }
            ],
            "name": "increaseAllowance",
            "outputs": [
                {
                    "internalType": "bool",
                    "name": "",
                    "type": "bool"
                }
            ],
            "stateMutability": "nonpayable",
            "type": "function"
        },
        {
            "inputs": [
                {
                    "internalType": "address",
                    "name": "_minter",
                    "type": "address"
                }
            ],
            "name": "isMinter",
            "outputs": [
                {
                    "internalType": "bool",
                    "name": "",
                    "type": "bool"
                }
            ],
            "stateMutability": "nonpayable",
            "type": "function"
        },
        {
            "inputs": [
                {
                    "internalType": "address",
                    "name": "",
                    "type": "address"
                }
            ],
            "name": "minters",
            "outputs": [
                {
                    "internalType": "bool",
                    "name": "",
                    "type": "bool"
                }
            ],
            "stateMutability": "view",
            "type": "function"
        },
        {
            "inputs": [],
            "name": "name",
            "outputs": [
                {
                    "internalType": "string",
                    "name": "",
                    "type": "string"
                }
            ],
            "stateMutability": "view",
            "type": "function"
        },
        {
            "inputs": [
                {
                    "internalType": "address",
                    "name": "_minter",
                    "type": "address"
                }
            ],
            "name": "removeMinter",
            "outputs": [],
            "stateMutability": "nonpayable",
            "type": "function"
        },
        {
            "inputs": [],
            "name": "symbol",
            "outputs": [
                {
                    "internalType": "string",
                    "name": "",
                    "type": "string"
                }
            ],
            "stateMutability": "view",
            "type": "function"
        },
        {
            "inputs": [],
            "name": "totalSupply",
            "outputs": [
                {
                    "internalType": "uint256",
                    "name": "",
                    "type": "uint256"
                }
            ],
            "stateMutability": "view",
            "type": "function"
        },
        {
            "inputs": [
                {
                    "internalType": "address",
                    "name": "recipient",
                    "type": "address"
                },
                {
                    "internalType": "uint256",
                    "name": "amount",
                    "type": "uint256"
                }
            ],
            "name": "transfer",
            "outputs": [
                {
                    "internalType": "bool",
                    "name": "",
                    "type": "bool"
                }
            ],
            "stateMutability": "nonpayable",
            "type": "function"
        },
        {
            "inputs": [
                {
                    "internalType": "address",
                    "name": "sender",
                    "type": "address"
                },
                {
                    "internalType": "address",
                    "name": "recipient",
                    "type": "address"
                },
                {
                    "internalType": "uint256",
                    "name": "amount",
                    "type": "uint256"
                }
            ],
            "name": "transferFrom",
            "outputs": [
                {
                    "internalType": "bool",
                    "name": "",
                    "type": "bool"
                }
            ],
            "stateMutability": "nonpayable",
            "type": "function"
        }
    ],
    "bytecode": "0x60a06040523480156200001157600080fd5b50604051620015a3380380620015a3833981810160405260808110156200003757600080fd5b81019080805160405193929190846401000000008211156200005857600080fd5b9083019060208201858111156200006e57600080fd5b82516401000000008111828201881017156200008957600080fd5b82525081516020918201929091019080838360005b83811015620000b85781810151838201526020016200009e565b50505050905090810190601f168015620000e65780820380516001836020036101000a031916815260200191505b50604052602001805160405193929190846401000000008211156200010a57600080fd5b9083019060208201858111156200012057600080fd5b82516401000000008111828201881017156200013b57600080fd5b82525081516020918201929091019080838360005b838110156200016a57818101518382015260200162000150565b50505050905090810190601f168015620001985780820380516001836020036101000a031916815260200191505b5060405260200180516040519392919084640100000000821115620001bc57600080fd5b908301906020820185811115620001d257600080fd5b8251866020820283011164010000000082111715620001f057600080fd5b82525081516020918201928201910280838360005b838110156200021f57818101518382015260200162000205565b505050509190910160405250602090810151865190935086925085916200024c91600391850190620003a2565b50805162000262906004906020840190620003a2565b50506005805460ff19166012179055506001600160a01b038116620002c0576040805162461bcd60e51b815260206004820152600f60248201526e494e56414c49445f4144445245535360881b604482015290519081900360640190fd5b6001600160601b0319606082901b1660805260005b8251811015620003975760006001600160a01b0316838281518110620002f757fe5b60200260200101516001600160a01b0316141562000349576040805162461bcd60e51b815260206004820152600a6024820152692727aa2fa6a4a72a22a960b11b604482015290519081900360640190fd5b6001600660008584815181106200035c57fe5b6020908102919091018101516001600160a01b03168252810191909152604001600020805460ff1916911515919091179055600101620002d5565b50505050506200044e565b828054600181600116156101000203166002900490600052602060002090601f016020900481019282620003da576000855562000425565b82601f10620003f557805160ff191683800117855562000425565b8280016001018555821562000425579182015b828111156200042557825182559160200191906001019062000408565b506200043392915062000437565b5090565b5b8082111562000433576000815560010162000438565b60805160601c61112d6200047660003980610613528061081d52806109d7525061112d6000f3fe6080604052600436106100fe5760003560e01c806395d89b4111610095578063a9059cbb11610064578063a9059cbb146103bd578063aa271e1a146103f6578063dd62ed3e14610429578063f46eccc414610464578063f851a44014610497576100fe565b806395d89b4114610310578063983b2d56146103255780639dc29fac14610358578063a457c2d714610384576100fe565b80633092afd5116100d15780633092afd514610244578063313ce5671461027957806339509351146102a457806370a08231146102dd576100fe565b806306fdde0314610103578063095ea7b31461018d57806318160ddd146101da57806323b872dd14610201575b600080fd5b34801561010f57600080fd5b506101186104c8565b6040805160208082528351818301528351919283929083019185019080838360005b8381101561015257818101518382015260200161013a565b50505050905090810190601f16801561017f5780820380516001836020036101000a031916815260200191505b509250505060405180910390f35b34801561019957600080fd5b506101c6600480360360408110156101b057600080fd5b506001600160a01b03813516906020013561055e565b604080519115158252519081900360200190f35b3480156101e657600080fd5b506101ef61057b565b60408051918252519081900360200190f35b34801561020d57600080fd5b506101c66004803603606081101561022457600080fd5b506001600160a01b03813581169160208101359091169060400135610581565b34801561025057600080fd5b506102776004803603602081101561026757600080fd5b50356001600160a01b0316610608565b005b34801561028557600080fd5b5061028e61073f565b6040805160ff9092168252519081900360200190f35b3480156102b057600080fd5b506101c6600480360360408110156102c757600080fd5b506001600160a01b038135169060200135610748565b3480156102e957600080fd5b506101ef6004803603602081101561030057600080fd5b50356001600160a01b0316610796565b34801561031c57600080fd5b506101186107b1565b34801561033157600080fd5b506102776004803603602081101561034857600080fd5b50356001600160a01b0316610812565b6102776004803603604081101561036e57600080fd5b506001600160a01b0381351690602001356108ed565b34801561039057600080fd5b506101c6600480360360408110156103a757600080fd5b506001600160a01b0381351690602001356108fb565b3480156103c957600080fd5b506101c6600480360360408110156103e057600080fd5b506001600160a01b038135169060200135610963565b34801561040257600080fd5b506101c66004803603602081101561041957600080fd5b50356001600160a01b0316610977565b34801561043557600080fd5b506101ef6004803603604081101561044c57600080fd5b506001600160a01b0381358116916020013516610995565b34801561047057600080fd5b506101c66004803603602081101561048757600080fd5b50356001600160a01b03166109c0565b3480156104a357600080fd5b506104ac6109d5565b604080516001600160a01b039092168252519081900360200190f35b60038054604080516020601f60026000196101006001881615020190951694909404938401819004810282018101909252828152606093909290918301828280156105545780601f1061052957610100808354040283529160200191610554565b820191906000526020600020905b81548152906001019060200180831161053757829003601f168201915b5050505050905090565b600061057261056b6109f9565b84846109fd565b50600192915050565b60025490565b600061058e848484610ae9565b6105fe8461059a6109f9565b6105f985604051806060016040528060288152602001611041602891396001600160a01b038a166000908152600160205260408120906105d86109f9565b6001600160a01b031681526020810191909152604001600020549190610c44565b6109fd565b5060019392505050565b336001600160a01b037f00000000000000000000000000000000000000000000000000000000000000001614610672576040805162461bcd60e51b815260206004820152600a60248201526941444d494e5f4f4e4c5960b01b604482015290519081900360640190fd5b6001600160a01b0381166106bf576040805162461bcd60e51b815260206004820152600f60248201526e494e56414c49445f4144445245535360881b604482015290519081900360640190fd5b6001600160a01b03811660009081526006602052604090205460ff16151560011461071e576040805162461bcd60e51b815260206004820152600a6024820152692727aa2fa6a4a72a22a960b11b604482015290519081900360640190fd5b6001600160a01b03166000908152600660205260409020805460ff19169055565b60055460ff1690565b60006105726107556109f9565b846105f985600160006107666109f9565b6001600160a01b03908116825260208083019390935260409182016000908120918c168152925290205490610cdb565b6001600160a01b031660009081526020819052604090205490565b60048054604080516020601f60026000196101006001881615020190951694909404938401819004810282018101909252828152606093909290918301828280156105545780601f1061052957610100808354040283529160200191610554565b336001600160a01b037f0000000000000000000000000000000000000000000000000000000000000000161461087c576040805162461bcd60e51b815260206004820152600a60248201526941444d494e5f4f4e4c5960b01b604482015290519081900360640190fd5b6001600160a01b0381166108c9576040805162461bcd60e51b815260206004820152600f60248201526e494e56414c49445f4144445245535360881b604482015290519081900360640190fd5b6001600160a01b03166000908152600660205260409020805460ff19166001179055565b6108f78282610d3c565b5050565b60006105726109086109f9565b846105f9856040518060600160405280602581526020016110d360259139600160006109326109f9565b6001600160a01b03908116825260208083019390935260409182016000908120918d16815292529020549190610c44565b60006105726109706109f9565b8484610ae9565b6001600160a01b031660009081526006602052604090205460ff1690565b6001600160a01b03918216600090815260016020908152604080832093909416825291909152205490565b60066020526000908152604090205460ff1681565b7f000000000000000000000000000000000000000000000000000000000000000081565b3390565b6001600160a01b038316610a425760405162461bcd60e51b81526004018080602001828103825260248152602001806110af6024913960400191505060405180910390fd5b6001600160a01b038216610a875760405162461bcd60e51b8152600401808060200182810382526022815260200180610ff96022913960400191505060405180910390fd5b6001600160a01b03808416600081815260016020908152604080832094871680845294825291829020859055815185815291517f8c5be1e5ebec7d5bd14f71427d1e84f3dd0314c0f7b2291e5b200ac8c7c3b9259281900390910190a3505050565b6001600160a01b038316610b2e5760405162461bcd60e51b815260040180806020018281038252602581526020018061108a6025913960400191505060405180910390fd5b6001600160a01b038216610b735760405162461bcd60e51b8152600401808060200182810382526023815260200180610fb46023913960400191505060405180910390fd5b610b7e838383610e38565b610bbb8160405180606001604052806026815260200161101b602691396001600160a01b0386166000908152602081905260409020549190610c44565b6001600160a01b038085166000908152602081905260408082209390935590841681522054610bea9082610cdb565b6001600160a01b038084166000818152602081815260409182902094909455805185815290519193928716927fddf252ad1be2c89b69c2b068fc378daa952ba7f163c4a11628f55a4df523b3ef92918290030190a3505050565b60008184841115610cd35760405162461bcd60e51b81526004018080602001828103825283818151815260200191508051906020019080838360005b83811015610c98578181015183820152602001610c80565b50505050905090810190601f168015610cc55780820380516001836020036101000a031916815260200191505b509250505060405180910390fd5b505050900390565b600082820183811015610d35576040805162461bcd60e51b815260206004820152601b60248201527f536166654d6174683a206164646974696f6e206f766572666c6f770000000000604482015290519081900360640190fd5b9392505050565b6001600160a01b038216610d815760405162461bcd60e51b81526004018080602001828103825260218152602001806110696021913960400191505060405180910390fd5b610d8d82600083610e38565b610dca81604051806060016040528060228152602001610fd7602291396001600160a01b0385166000908152602081905260409020549190610c44565b6001600160a01b038316600090815260208190526040902055600254610df09082610e81565b6002556040805182815290516000916001600160a01b038516917fddf252ad1be2c89b69c2b068fc378daa952ba7f163c4a11628f55a4df523b3ef9181900360200190a35050565b6001600160a01b03831660009081526006602052604090205460ff1615156001148015610e6d57506001600160a01b03821615155b15610e7c57610e7c8382610ec3565b505050565b6000610d3583836040518060400160405280601e81526020017f536166654d6174683a207375627472616374696f6e206f766572666c6f770000815250610c44565b6001600160a01b038216610f1e576040805162461bcd60e51b815260206004820152601f60248201527f45524332303a206d696e7420746f20746865207a65726f206164647265737300604482015290519081900360640190fd5b610f2a60008383610e38565b600254610f379082610cdb565b6002556001600160a01b038216600090815260208190526040902054610f5d9082610cdb565b6001600160a01b0383166000818152602081815260408083209490945583518581529351929391927fddf252ad1be2c89b69c2b068fc378daa952ba7f163c4a11628f55a4df523b3ef9281900390910190a3505056fe45524332303a207472616e7366657220746f20746865207a65726f206164647265737345524332303a206275726e20616d6f756e7420657863656564732062616c616e636545524332303a20617070726f766520746f20746865207a65726f206164647265737345524332303a207472616e7366657220616d6f756e7420657863656564732062616c616e636545524332303a207472616e7366657220616d6f756e74206578636565647320616c6c6f77616e636545524332303a206275726e2066726f6d20746865207a65726f206164647265737345524332303a207472616e736665722066726f6d20746865207a65726f206164647265737345524332303a20617070726f76652066726f6d20746865207a65726f206164647265737345524332303a2064656372656173656420616c6c6f77616e63652062656c6f77207a65726fa2646970667358221220447c860408b6be47627ed8850f3e8a710b08371ea2944c7ad17a8042357ae76264736f6c63430007040033",
    "linkReferences": {},
    "deployedLinkReferences": {}
}